:100000003DC000006CC000006AC0000068C0000075
:1000100066C0000064C0000062C0000060C0000054
:100020005EC000005CC000005AC0000058C0000064
:1000300056C0000054C0000052C0000050C0000074
:100040004EC000004CC000004AC0000048C0000084
:1000500046C0000044C0000042C0000040C0000094
:100060003EC00000E5C200003AC0000038C00000F9
:1000700036C0000034C000004004920411241FBEAA
:10008000CFEFCDBFDFE3DEBF809140008093400023
:10009000811105C098ED21E094BF209341008CBBF5
:1000A00024E3A6E0B4E301C01D92A432B207E1F755
:1000B00014E3A0E0B4E3E8E3FCE002C005900D9295
:1000C000A630B107D9F710E0CDE3D0E003C0219707
:1000D000FE0154D4CC33D107D1F7C6D289C590CF15
:1000E0008F929F92AF92BF92CF92DF92EF92FF9248
:1000F000CF9320910C3430910D3482179307E8F59B
:100100004B01AA24BB24C82DC52ED62EE72EFF24D2
:10011000BC2DA42F20911234222361F0829E400135
:100120001124C92D2C9D60011124BD2D249FF001A7
:100130001124AF2FE0911834E0901334F090143470
:1001400030911534E31323C09C01220F331F820F1B
:10015000931F8E0D9F1DE0911534E80FF92FF11DAF
:10016000C083E0911634E80FF92FF11DB083209180
:100170001734820F911DFC01A083CF91FF90EF9067
:10018000DF90CF90BF90AF909F908F900895880F91
:10019000991F880F991F8E0D9F1D472F5527662782
:1001A0007727222349F030E0249F7001259FF00C2F
:1001B000349FF00C11244F2DE80FF92FF11D4083CF
:1001C000CACF9FB7F894E0919A0AF0919B0A809168
:1001D000960A2091063430910734409108345091AA
:1001E00009349FBF80FF08C0CF018827892B21F4E5
:1001F0002F5F3F4F4F4F5F4FA8EEB3E0B5D323E0E3
:10020000F695E7952A95E1F76E0F7F1F811D911DE9
:1002100008950F931F93CF93DF93CDB7DEB7299740
:10022000CDBFDEBF8091133490911434892B09F433
:100230007AC0C7DF0091193410911A3420911B3411
:1002400030911C34601771078207930740F4609364
:10025000193470931A3480931B3490931C3400919A
:10026000193410911A3420911B3430911C34601BC6
:10027000710B820B930B6C32714081059105C8F2B2
:10028000F89480910E3490910F3489839A83E09191
:100290001334F0911434DF01119680818987909195
:1002A0000A34E0911D34F0911E3480911F3499235B
:1002B00009F441C09081982B98879081809589237B
:1002C0008F838F818C8388E08B8358856F814985EC
:1002D0003B812C8189819A81508347FD252F3A9556
:1002E0002083262F39F0441F00C0000060830000E7
:1002F00000C0F2CF38E04D9160830000019761F7B4
:10030000E0931D34F0931E3449873B832C8389830B
:100310009A83789456DF6093193470931A348093DB
:100320001B3490931C342996CDBFDEBFDF91CF9153
:100330001F910F9108959081982B988790818095B7
:1003400089238F838F818E8388E08D8358856F8189
:1003500049853D812E8189819A81508347FD252FD2
:1003600000C000C0208300C000C000C000C000C0AA
:1003700060830000262F3A9541F0441F000000C022
:1003800000C000C000C000C0E8CF38E04D9100C000
:10039000608300C0019709F7E0931D34F0931E3489
:1003A00049873D832E83B3CFCF92DF92EF92FF92A6
:1003B000CF93DF936B017C0104DFEB01C114D10407
:1003C000E104F10441F412C081E0C81AD108E10847
:1003D000F108C851DC4FF5DE6C1B7D0B683E7340A5
:1003E00068F3C114D104E104F10471F7DF91CF91F6
:1003F000FF90EF90DF90CF900895CF92DF92EF9231
:10040000FF92CF93DF936B017C01D0E0C0E080913D
:100410000C3490910D34C817D90760F4B701A601C8
:10042000CE015EDEF6DE62E370E080E090E0BCDFED
:100430002196EDCFDF91CF91FF90EF90DF90CF909D
:1004400008958F929F92AF92BF92EF92FF920F9377
:100450001F93CF93DF934B015C018AE0E82EF12CD0
:10046000D0E0C0E010E000E080910C3490910D34B9
:100470000817190748F4B501A401CE01800F911F98
:100480002FDE0D5F1F4FF0CFC4DE62E370E080E02F
:1004900090E08ADF10E000E080910C3490910D3400
:1004A0000817190750F440E050E0BA01CE01800F60
:1004B000911F16DE0D5F1F4FEFCF2196C330D10580
:1004C00089F681E0E81AF10859F6DF91CF911F9182
:1004D0000F91FF90EF90BF90AF909F908F900895F5
:1004E000282F2095253598F4822F880F880F622FAA
:1004F000681B9FEF960F692F70E090E080E0CB01C2
:1005000077276627322F330F230F622B08952A3A5D
:1005100088F42555622F660F620F70E090E080E04E
:10052000982F872F762F6627322F330F330F231BF9
:100530002150EBCF2A5A822F880F880F322F381B79
:100540003150622F660F620F70E090E080E0CB01C7
:1005500077276627732B0895CF93DF938C3008F0AD
:100560003EC090E0EC01C45DD34728812F3FB9F134
:10057000AC01405E5347DA01EC91B0E2EB9FF00131
:100580001124FC5F26833081232391F49C012C5E8F
:100590003347D9012C91309729F1283018F57096FE
:1005A000E20FF11D3FB7F8942081277F20833FBFE2
:1005B000885F9347FC018081882389F0803179F43A
:1005C0008881DA019C91913081F4853010F0880F98
:1005D00082959091010A809589238093010ADF9189
:1005E000CF910895F0E0E0E0DDCF880FF2CF8C30BE
:1005F000E0F490E0FC01E45DF34720812F3FA9F097
:10060000FC01E05EF347E08130E2E39FF00111245A
:10061000FC5F662359F021838C5E9347DC018C914B
:10062000E80FF11D8089877F808B08952283F4CFA6
:100630008F9381E08093960A8FB78F93EF93FF9308
:10064000E6E0F4E380818F5F808381818F4F818337
:1006500082818F4F828383818F4F8383FF91EF91BC
:100660008F918FBF8F91189588ED90E084BF909304
:100670006100E0E0F6E082E081838FE0808781E244
:10068000808380E882838AE083871092E40581E09A
:100690008093030A9EEF9093260A9093270A9BE08B
:1006A0009093000A2FE33FE120939C0A30939D0A28
:1006B0008093950A1092910A83E08093900A78942F
:1006C000809110349091113497FD05C061E08FDF67
:1006D0008091103441DF81E080930B3460911234BB
:1006E000633329F120911334309114346150C9F0EF
:1006F00070E08FEF92E324D1F90140910E345091D4
:100700000F34CF01821B930B8417950768F4DF0128
:100710004D91469FC001479F900D11249083FD018C
:10072000ECCF70E060E0E8CF83E38093123471DDBA
:10073000CC24CA94D12C60E070E08FEF90E05DDEB5
:1007400060E07FEF80E090E058DE6FEF70E080E0E7
:1007500090E053DE6FE77FE78FE790E072DE60E0C6
:1007600070E08FE790E06DDE6FE770E080E090E092
:1007700068DE10E000E0D0E0C0E080910C349091A1
:100780000D34C817D90748F48C2F800FA9DEAB01B0
:10079000BC01CE01A5DC2196F0CF3BDD64E170E029
:1007A00080E090E001DE0F5F1F4F011581E0180728
:1007B00011F7D0E0C0E0F12CE12C10E000E06091F6
:1007C0000C3470910D340617170768F4C701B8D0C0
:1007D0008C2F860F85DEAB01BC01C80181DC0F5F69
:1007E0001F4FF394ECCF15DD64E170E080E090E002
:1007F000DBDD2196C11585E0D807E9F6F12CE12C67
:10080000D0E0C0E010E000E080910C3490910D3415
:100810000817190778F4C701800F911FB60190D00F
:100820005FDEAB01BC01CE01800F911F59DC0D5F73
:100830001F4FEACFEEDC62E370E080E090E0B4DDD1
:1008400010E000E080910C3490910D3408171907E6
:1008500050F440E050E0BA01CE01800F911F40DC1F
:100860000D5F1F4FEFCF2196C330D10559F68FEFA3
:10087000E81AF80AE11481E0F80609F0C1CF5BCF6D
:1008800010920B34109212341092193410921A34C0
:1008900010921B3410921C3481E0809318348093A2
:1008A00015341092163492E09093173480930A34E2
:1008B00084E290E080930E3490930F3474D0809350
:1008C000133490931434009721F124E2FC01119227
:1008D0002A95E9F78CE090E080930C3490930D34E6
:1008E00088E090E0809310349093113480910B3421
:1008F000882329F061E088E07ADE88E02DDE84E05C
:1009000094E080931D3490931E3482E080931F34D2
:10091000089510920E3410920F3410920C341092ED
:100920000D34DECF8091133490911434D8D080915F
:1009300010349091113497FD02C060E058CE0895B4
:10094000AA1BBB1B51E107C0AA1FBB1FA617B707F5
:1009500010F0A61BB70B881F991F5A95A9F7809511
:100960009095BC01CD0108950FD0A59F900DB49F27
:10097000900DA49F800D911D11240895EE0FFF1F6F
:100980000590F491E02D0994A29FB001B39FC0019E
:10099000A39F700D811D1124911DB29F700D811DAB
:1009A0001124911D08950F931F93CF93DF938230ED
:1009B000910510F482E090E0E0912234F09123342C
:1009C00030E020E0B0E0A0E0309799F42115310547
:1009D00009F44AC0281B390B24303105D8F58A8127
:1009E0009B816115710589F1FB0182839383FE016F
:1009F00011C0408151810281138148175907E0F0ED
:100A00004817590799F4109761F012960C931297B2
:100A100013961C933296CF01DF91CF911F910F91C6
:100A200008950093223410932334F4CF2115310517
:100A300051F04217530738F0A901DB019A01BD01BB
:100A4000DF01F801C1CFEF01F9CF809322349093F9
:100A50002334CDCFFE01E20FF31F819391932250F7
:100A6000310928833983D7CF209120343091213424
:100A7000232B41F42091023430910334209320340D
:100A80003093213420910034309101342115310507
:100A900041F42DB73EB74091043450910534241BE6
:100AA000350BE0912034F0912134E217F307A0F4E4
:100AB0002E1B3F0B2817390778F0AC014E5F5F4FB4
:100AC0002417350748F04E0F5F1F40932034509392
:100AD0002134819391939FCFF0E0E0E09CCFCF93BE
:100AE000DF930097E9F0FC01329712821382A09104
:100AF0002234B0912334ED0130E020E01097A1F4CE
:100B000020813181820F931F209120343091213434
:100B10002817390709F061C0E0932034F09321349D
:100B2000DF91CF910895EA01CE17DF07E8F54A81FA
:100B30005B819E0141155105B1F7E901EA83FB8311
:100B400049915991C40FD51FEC17FD0761F48081BD
:100B500091810296840F951FE90188839983828190
:100B600093818A839B83F0E0E0E012968D919C91C3
:100B700013970097B9F52D913C911197CD010296ED
:100B8000820F931F20912034309121342817390788
:100B900039F6309751F51092223410922334A093F5
:100BA0002034B0932134BCCFC283D38340815181A0
:100BB000840F951FC817D90761F44E5F5F4F888176
:100BC0009981480F591F408351838A819B81828379
:100BD00093832115310509F0B0CFE0932234F093CF
:100BE00023349ECFFD01DC01C0CF12821382D7CF08
:100BF00010E0CDE3D0E003C0FE01C0DE2196CE338D
:080C0000D107D1F7F894FFCFF2
:100C08001010000000101010000010000405060766
:100C180003020100010203000000000001010101BC
:100C280000000000102040800804020102040801AE
:060C3800000024348000DE
:00000001FF
